:100000000C9434000C943E000C943E000C943E0082
:100010000C943E000C943E000C943E000C943E0068
:100020000C943E000C943E000C943E000C943E0058
:100030000C943E000C943E000C943E000C943E0048
:100040000C943E000C943E000C943E000C943E0038
:100050000C943E000C943E000C943E000C943E0028
:100060000C943E000C943E0011241FBECFEFD8E04C
:10007000DEBFCDBF0E9440000C94A6000C9400008F
:1000800080EC8AB988E38BB960E971E0B1E0A0E463
:1000900050EC29B149B1407139B1307288EE93E02A
:1000A000FB013197F1F70197D9F72695269526950B
:1000B0002B272170822F90E0442309F401963323EB
:1000C00009F40196019709F03DC0332391F420E033
:1000D00030E08BB185278BB988EE93E0FB01319737
:1000E000F1F70197D9F72F5F3F4F2A30310589F794
:1000F000D0CF222391F020E030E08BB18A278BB95A
:1001000088EE93E0FB013197F1F70197D9F72F5F64
:100110003F4F2A30310589F7BCCF442309F0B9CFCE
:1001200020E030E08BB180588BB988EE93E0FB0182
:100130003197F1F70197D9F72F5F3F4F2A303105FB
:1001400089F7A7CF8BB18F738BB9A3CFF894FFCF6B
:00000001FF
