:100000000C9434000C943E000C943E000C943E0082
:100010000C943E000C943E000C943E000C943E0068
:100020000C943E000C943E000C943E000C943E0058
:100030000C943E000C943E000C943E000C943E0048
:100040000C943E000C943E000C943E000C943E0038
:100050000C943E000C943E000C943E000C943E0028
:100060000C943E000C943E0011241FBECFEFD8E04C
:10007000DEBFCDBF0E9440000C948A000C940000AB
:1000800080EC8AB988E38BB970EC40E951E060E418
:1000900099B189B14D9912C020E030E08BB187272A
:1000A0008BB988EE93E0FA013197F1F70197D9F710
:1000B0002F5F3F4F2A30310589F7EACF93FD12C0F9
:1000C00020E030E08BB186278BB988EE93E0FA010F
:1000D0003197F1F70197D9F72F5F3F4F2A3031055C
:1000E00089F7D6CF84FD12C020E030E08BB1805874
:1000F0008BB988EE93E0FA013197F1F70197D9F7C0
:100100002F5F3F4F2A30310589F7C2CF8BB18F73F4
:080110008BB9BECFF894FFCFBC
:00000001FF
